:020000040800F2
:10000000B00C00209D01000867360008333200085C
:1000100065360008350A000831420008000000007B
:10002000000000000000000000000000B7380008D9
:100030002110000800000000B5380008753A0008DB
:10004000B7010008B7010008B7010008B7010008B0
:10005000B7010008B7010008B7010008B7010008A0
:10006000B7010008B7010008B7010008B701000890
:10007000B7010008B7010008B7010008B701000880
:10008000B7010008B7010008F1080008890A000854
:10009000390A0008B7010008B7010008B7010008D5
:1000A000B7010008B7010008B7010008B701000850
:1000B000513B00085D3B0008B7010008B70100088C
:1000C000B7010008B7010008B7010008B701000830
:1000D000B7010008B701000825420008B701000871
:1000E000B7010008B7010008B7010008B701000810
:1000F000753B0008B7010008B7010008B701000808
:10010000B7010008B7010008B7010008B7010008EF
:10011000B7010008B7010008693B0008B7010008F3
:100120004D0E0008B7010008590E0008B70100087D
:10013000B70100080000000000000000B70100083F
:10014000B7010008B7010008B7010008B7010008AF
:10015000B7010008B7010008B7010008B70100089F
:10016000B7010008B7010008B7010008B70100088F
:10017000B7010008B70100080000000000000000FF
:10018000B7010008B7010008DFF80CD000F02EFB23
:1001900000480047594F0008B00C0020064880472F
:1001A00006480047FEE7FEE7FEE7FEE7FEE7FEE75C
:1001B000FEE7FEE7FEE7FEE7FD3A000889010008DA
:1001C0002DE9F05F0546002092469B46884606468C
:1001D000814640241BE0284641464746224600F01F
:1001E0001FFA53465A46C01A914110D31146184679
:1001F000224600F006FA2D1A67EB01084F46224608
:100200000120002100F0FDF917EB00094E41201EEE
:10021000A4F10104DFDC484631462A464346BDE8E6
:10022000F09FD2B201E000F8012B491EFBD27047CB
:100230000022F6E710B513460A4604461946FFF7B2
:10024000F0FF204610BD2DE9FE4F804681EA0300F5
:10025000C00F0C46009021F0004123F00045B8EBA0
:100260000200A94105D24046214690461C460B4655
:10027000024623F00040104347D0270DC7F30A0081
:10028000C3F30A510290401A019040286BDAC3F37D
:10029000130040F4801B0098924620B10023D2EB5B
:1002A000030A63EB0B0B01985946C0F1400250461C
:1002B00000F0A7F906460D4650465946019A00F04F
:1002C000BFF910EB08006141002487EA115284EA6B
:1002D000E7731A4340D0009A62B3019A012A4FEAA9
:1002E000075215DC001B61EB02014FF0004202EAED
:1002F0000752CDE90042001C41F5801132462B46E1
:1003000000F0F6F903B0BDE8F08F40462146F9E76A
:10031000001B61EB0201001C41F5801300185B41DA
:100320002018A2F5001747EB030140EAD570B61973
:100330006D4111E06D084FEA360645EAC0754FEA97
:100340000752001B61EB0201001C41F580114908B6
:100350004FEA30000019514132462B4603B0BDE848
:10036000F04F00F0B6B90098012240000023D0EB16
:10037000020263EBE073009821464FEAE074B8EBA9
:10038000000061EB0401E9E783F000435BE781F0E3
:10039000004158E72DE9FE4F81EA030404F00044D0
:1003A00021F0004100944FF0000B23F0004350EA8D
:1003B00001045ED052EA03045BD0C3F30A54C1F3D4
:1003C0000A552C44A4F2F3340194A0FB0254C1F367
:1003D000130141F48011C3F3130343F4801301FBB1
:1003E000024400FB034E840A970A44EA815447EA18
:1003F0008357A4FB076802958D0A05FB07854FEA22
:10040000932C04FB0C542705029D4FEA065847EA3B
:100410001637B5EB08056EEB070C870E920E47EA10
:10042000811742EA8312A7FB0201B6EB0B0164EBD2
:1004300000042B0D43EA0C335E1844EB1C50DA46E3
:100440005146E7FB0201C5F313044FEA0B3343EABD
:1004500014534FEA0432019C43EA0603A4F10C044E
:100460000294009CCDE900B400F042F903B0BDE86D
:10047000F08F00200146F9E72DE9F04D81EA0304F1
:1004800004F0004B21F0004514464FF0000A23F021
:10049000004150EA050220D054EA01021DD0C5F304
:1004A0000A570246C5F31303C1F31300C1F30A56FA
:1004B00040F4801543F48013A7EB0608101BD646C2
:1004C00008F2FD3873EB050002D308F1010801E0E2
:1004D00092185B41B8F1000F03DA00200146BDE835
:1004E000F08D00204FF48011064684460EE0171B65
:1004F00073EB050705D3121B63EB050306434CEAB8
:10050000010C49084FEA300092185B4150EA01079C
:10051000EDD152EA030012D082EA040083EA050119
:10052000084305D0101BAB4106D20122002306E090
:1005300000224FF0004302E06FF0010253101AEB6B
:1005400006004CEB085110EB0A0041EB0B01BDE833
:10055000F04D00F0BEB80EB5C10F80EAE07008445F
:10056000CA07002140F233438DE80E000A460B46CD
:1005700000F0BEF803B000BD00F0004230F00040D3
:100580000AD0C10D01F56071C0F3160042EA0151B5
:10059000C20840071143704700200146704701F030
:1005A000004330B421F0004150EA010206D00A0DA8
:1005B000A2F56072C1F31301002A02DC30BC0020F6
:1005C0007047440F44EAC104C100E01830BC00EB9E
:1005D000C25000F047B830B50B460146002020223B
:1005E000012409E021FA02F59D4205D303FA02F540
:1005F000491B04FA02F52844151EA2F10102F1DCA0
:1006000030BD202A04DB203A00FA02F100207047B6
:100610009140C2F1200320FA03F319439040704740
:10062000202A04DB203A21FA02F00021704721FA47
:1006300002F3D040C2F120029140084319467047AE
:10064000202A06DBCB17203A41FA02F043EAE07396
:1006500006E041FA02F3D040C2F120029140084383
:10066000194670470029A8BF7047401C490008BFC1
:1006700020F00100704710B4B0FA80FC00FA0CF0D2
:1006800050EA010404BF10BC704749B1CCF120040A
:1006900021FA04F411FA0CF118BF01212143084397
:1006A000A3EB0C01CB1D4FEA00614FEA102042BFC3
:1006B000002010BC704700EBC35010440029A4BFB9
:1006C00010BC7047401C490008BF20F0010010BC5E
:1006D000704710B5141E73F1000408DA401C41F194
:1006E000000192185B411A4301D120F0010010BDB6
:1006F0002DE9F04D92469B4611B1B1FA81F202E02C
:10070000B0FA80F220329046FFF77BFF04460F4696
:1007100040EA0A0041EA0B0153465A46084313D007
:10072000114653EA010019D0C8F140025046FFF7C4
:1007300077FF05460E46504659464246FFF761FF91
:10074000084305D0012004E020463946BDE8F08D7D
:100750000020054346EAE0762C4337430A986305B8
:10076000E40AA0EB08000022FD0A44EA47540A30DC
:1007700002D500200146E9E7010510196941DDE9CC
:10078000084500196941BDE8F04DA2E7C1F30A52DE
:10079000C1F3130140F2FF3341F480119A4202DAAF
:1007A00000200146704740F233439A42A2F233429E
:1007B00002DC5242FFF734BFFFF723BF30B5041EFF
:1007C00071F1000404DB4FF00044404264EB01018E
:1007D000141E73F1000405DB1C464FF00043524227
:1007E00063EB0403994208BF904230BD064C074DAD
:1007F00006E0E06840F0010394E8070098471034F1
:10080000AC42F6D3FFF7C4FC0053000820530008A5
:100810000F48104A0169491C01610F4992ED060A0F
:100820000E4881ED000A0B7803764B7843768B787F
:100830008376C978C17692F8361001770021A0F846
:100840001D10C17700F118014FF4427000F0FAB8A2
:10085000E0050020A40500200C000020F800002086
:1008600010B50146806B026C12F0500F05D0026C7F
:10087000D20626D500F049FD10BD016C41F400718F
:10088000016401688A6812F0405F17D1027EAAB93C
:10089000CA6A12F4700F02D08A6852050ED44A68F0
:1008A00022F020024A60016C21F480710164016C25
:1008B000C90403D4016C41F00101016400F066FC3D
:1008C00010BD806BC26CBDE810400846104710B5E3
:1008D000806B40210164416C41F00401416400F0EF
:1008E00014FD10BD10B5806B00F00EFD10BD0000B2
:1008F00010B5044800F00AFDBDE81040024800F0C1
:1009000005BD0000F805002040060020464910B54E
:100910004A6822F440324A604A6843681A434A608F
:1009200001684A6822F480724A6001684A68036973
:1009300042EA03224A6001684A6822F040724A6033
:1009400001684A6883681A434A6001688A6822F429
:1009500000628A6001688A68C3681A438A60816A93
:100960006FF07062D14201688A6822F070628A601A
:1009700001688A680CD0836A1A438A6001688A68B1
:1009800022F040528A6001688A68C36A1A4301E013
:1009900022F040528A6001688A6822F002028A606E
:1009A00001688A68037E42EA43028A6090F8201058
:1009B000002901684A680FD042F400624A60016869
:1009C0004A6822F460424A6001684A68174C436AE8
:1009D00004EB43331A4301E022F400624A600168E9
:1009E000CA6A22F47002CA620168CA6A838B104C18
:1009F00004EB03531A43CA6201688A6822F4007246
:100A00008A6001688A6890F8303042EA43228A603E
:100A100001688A6822F480628A6001688A68406995
:100A200042EA8020886010BD0023014000E0FFFF03
:100A30000000F0FFFEE70000014800F0D8BF000012
:100A4000480700200E4A0823136100239360D360F7
:100A50001060087810764878507688789076C87854
:100A6000D076087910774879507788799077C87967
:100A7000D077012318320249024800F059BE000025
:100A80007000002048070020014800F0B0BF0000BF
:100A90004807002070B58AB006460E200990194814
:100AA00086422DD1012405A902200025089481E861
:100AB00031004FF40150009042F2600001904FF479
:100AC0000250029042F2A000CDE90305694630468B
:100AD00000F092FE05A90320089481E831004FF44C
:100AE0000350009042F2E000019042F22020029078
:100AF0004FF40950CDE903056946304600F07CFE0D
:100B00000AB070BD4807002010B59FED132ADFED35
:100B1000131A9FED131ADFED130A9FED130A134802
:100B200004F0C8FA11483C213C30FFF781FB0F4824
:100B30009FED0F0A3C303C2180ED010A9FED0D0A2C
:100B400080ED040AB3EE090A80ED070AB2EE0E0A40
:100B500080ED060A818410BD003C034600401C471E
:100B600000000000CDCC4C3E33331340680500201C
:100B70000AD723401F85234070B5D0ED070A90EDBA
:100B8000050A9FED171A174D044600EEC01A81EEB4
:100B9000200A80ED0A0AD0ED020A284630EE600AEB
:100BA00085ED040A02F060FD0F49A06988420BDA66
:100BB0006869FFF7E1FC9FED0D1B53EC112BFFF76C
:100BC000E9FBFFF7ECFC686195ED050A0949BCEE0D
:100BD000C00A096810EE100A80B2486370BD0000B8
:100BE00000007A446805002000007041333333333D
:100BF0003333E33F7007002070B50C46054661A112
:100C000000F000F918B1204604F002FAB3E05EA14A
:100C1000284600F0F7F818B1204604F023FAAAE0BD
:100C20005AA1284600F0EEF80028EFD158A1284636
:100C300000F0E8F80028E9D156A1284600F0E2F8D3
:100C40000028E3D154A1284600F0DCF80028DDD1CB
:100C500052A1284600F0D6F80028D7D150A1284646
:100C600000F0D0F80028D1D14EA1284600F0CAF8F3
:100C70000028CBD14CA1284600F0C4F800287AD136
:100C80004AA1284600F0BEF8002874D148A12846A1
:100C900000F0B8F800286ED146A1284600F0B2F85E
:100CA000002868D144A1284600F0ACF8002862D1A1
:100CB00042A1284600F0A6F800285CD140A12846B1
:100CC00000F0A0F8002856D13EA1284600F09AF87E
:100CD000002850D13CA1284600F094F800284AD1C1
:100CE0003AA1284600F08EF8002844D138A12846C1
:100CF00000F088F800283ED136A1284600F082F89E
:100D0000C8BB35A1284600F07DF8A0BB33A128461A
:100D100000F078F878BB32A1284600F073F850BB99
:100D200030A1284600F06EF810B104F00DF922E071
:100D30002DA1284600F066F8E8B92CA1284600F05D
:100D400061F8C0B92AA1284600F05CF898B929A139
:100D5000284600F057F870B927A1284600F052F84D
:100D600048B926A1284600F04DF820B924A128460C
:100D700000F048F808B1002070BD2146284603F075
:100D8000E3FEF8E72A3100002A3200002A3300008F
:100D90002A3400002A3500002A3600002A370000D5
:100DA0002A3800002A3900002331000023320000D5
:100DB00023330000233400002335000023360000D5
:100DC0004031000040320000403300004034000059
:100DD0004035000040360000403700004038000039
:100DE0004039000024310000243200002433000088
:100DF000243400002436000024370000243800008A
:100E00002439000030B50C46054602F017FE0346B3
:100E1000204602F013FE83420AD1002004E0295C40
:100E2000225C914204D1401C9842F8DB012030BD85
:100E3000002030BD0022835C23B18B54521C642AF5
:100E4000F9DB00E08B54012070470000014801F0FD
:100E500053B8000088060020014801F04DB800009A
:100E6000E806002001681823CAB2103AB2FBF3F278
:100E7000054B6FF30901032A9B5CC36500D9091D6B
:100E800081650846704700003052000810B50146E1
:100E900000208B698A6A4FF0C07453B1B3F5005FCC
:100EA00015D072B1012A0CD0022A0AD0032A09D126
:100EB00004E01AB1012A06D0022A03D1C96AC90185
:100EC00000D5012010BDC96AA142FAD010BD002A88
:100ED000F7D0012AF2D0022AF3D0032AF3D010BDB2
:100EE00030B50468256825F48025256004686360B2
:100EF0008368402B036803D099600068C26030BDEE
:100F00009A600068C16030BD2DE9F0478146002736
:100F1000012602F093FD051E34D00024DFF868801E
:100F20002DE0621C2146484602F090FD17A1FFF714
:100F300069FF88B122463946484602F087FD02F033
:100F4000E3FC10EE100AFFF717FB08EBC602671C64
:100F5000C2E90001761C11E0281B01280ED12A46A7
:100F60003946484602F072FD02F0CEFC10EE100A3F
:100F7000FFF702FB08EBC602C2E90001641CAC42A9
:100F8000CFDB3046BDE8F08748020020200000009B
:100F900070B52149214B28280A780BD012B19854FA
:100FA000521C0A7029280BD10024D0B225461C54AB
:100FB0000C700BE0002AF2D1282018700120087074
:100FC00070BD5819407858556D1CEDB2134802F0A9
:100FD00035FD401EA842F4DC104802F02FFD1844F5
:100FE0000E4A00F8024C503AA2F114010B4802F0EC
:100FF00063FC0A485038FFF787FF0146074864380A
:10100000FFF7FAFD0549002050390C54401CC0B2CE
:101010006428FAD370BD0000100000207C0100207D
:101020007047704702460020431E115C202904D0FF
:1010300011B1401C6428F8DB184670477047000067
:1010400078B50024009490F83C20012A19D00122A0
:1010500080F83C200A6807230568092A13D9EE683E
:101060000A3A02EB420293409E43EE600B788A6894
:101070000A3B03EB43039A400368DD682A43DA60C6
:1010800010E0022078BD2E6902EB420293409E439D
:101090002E610B788A6803EB43039A4003681D694D
:1010A0002A431A614A681F23072A13D205686E6B08
:1010B000521E02EB820293409E436E630B790A88B4
:1010C0005B1E92B203EB83039A4003685D6B2A4375
:1010D0005A6327E005680D2A12D22E6BD21F02EB4D
:1010E000820293409E432E630B790A88DB1F92B2E3
:1010F00003EB83039A4003681D6B2A431A6311E0D4
:10110000EE6A0D3A02EB820293409E43EE620B7947
:101110000A880D3B92B203EB83039A400368DD6AB1
:101120002A43DA62164B0568144A9D4206D10D68BF
:10113000122D03D1556845F48005556005689D4220
:1011400018D10B68102B01D0112B13D1536843F425
:1011500000035360096810290CD10A490A4A09683A
:10116000B1FBF2F101EB8101490000E0491E009161
:101170000029FBD180F83C40002078BD00230140CD
:10118000002001405C00002040420F002DE9F041AA
:1011900006462DED068B00684C494D4DDFF8348135
:1011A00088427BD1288E00EE100AF8EE400A9FEDAF
:1011B0004A0A4A4C002720EE809A85ED009A688EF4
:1011C00000EE900AF8EE600A60EE808AC5ED038AB0
:1011D00020889FED438A1E2826D16068FFF7CCF94E
:1011E0009FED401B53EC112BFFF7CEF89FED3FAB6B
:1011F00053EC1A2BFFF740F9FFF7D1F9A860A0686C
:10120000FFF7BAF99FED3B1B53EC112BFFF7BCF82E
:1012100053EC1A2BFFF730F9FFF7C1F9686127800B
:1012200084ED018A84ED028A6088B0F57A7F12D15C
:10123000D4ED030A9FED310A80EE801A85ED011A84
:10124000D4ED040A80EE801A85ED041A678084EDDF
:10125000038A84ED048A94ED010A39EE000A84EDD4
:10126000010A94ED020A38EE800A84ED020A94ED38
:10127000030A39EE000A84ED030A94ED040A38EEFD
:10128000800A84ED040A6088401C60802088401C2D
:101290002080D8F80010491CC8F8001018493068A0
:1012A00088420FD1A88EDFED170A00EE100AB8EEC3
:1012B000400A20EE200A85ED060AD8F80410491CE1
:1012C000C8F80410BDEC068BBDE8F0810020014099
:1012D000A4050020E00500203233533A48000020E6
:1012E0000000000048E17A14AEC752407B14AE47BC
:1012F000E17AA43F52B81E85EBC1524000007A4407
:10130000002101403233113C7047704770B50446EC
:10131000006801684268C1F34001C2F3401251B352
:101320004AB3216CC90603D4216C41F400712164D5
:10133000816811F0405F17D1217EA9B9C16A11F40B
:10134000700F02D0816849050ED4416821F0200158
:101350004160206C20F480702064206CC00403D4B1
:10136000206C40F0010020642046FFF70FFF216849
:101370006FF012000860206801684268C1F38001C4
:10138000C2F3C01289B382B3216CC90603D4216CA5
:1013900041F400512164816811F4401F1ED1816B1A
:1013A00011F4401F02D08168490517D441684905EE
:1013B00014D4816811F0405F10D1217E71B9416869
:1013C00021F080014160206C20F480502064206C6A
:1013D000C00503D4206C40F0010020642046FFF7D4
:1013E0002DFE21686FF00C000860206801684268DB
:1013F00011F0010FC2F380120ED06AB10068C0076D
:101400000AD0206C40F480302064204600F046F87A
:1014100021686FF001000860206801684268C1F32C
:101420004011C2F3806200290DD0002A0BD0616CFC
:1014300041F0020161646FF0200505602046FFF76E
:1014400064FF2068056070BD70B504004FF00005B2
:1014500003D0206C002610B107E0012070BD2046AB
:1014600000F01EF8666484F83C60206CC00610D45E
:10147000206C20F4885040F0020020642046FFF7E2
:1014800045FA6664206C20F0020040F00100206400
:1014900000E0012584F83C60284670BD70470000DC
:1014A0002DE9F04F87B0064614216846FEF7C0FECE
:1014B0004448DFF80CC1336800254249143803243E
:1014C000414A20274FF480684FF400694FF4005AD6
:1014D0004FF4807B63453FD10B6843F480730B600E
:1014E000096801F480710591016841F00101016012
:1014F000016801F001010591016841F004010160FA
:101500000068694600F00400059010208DE8310065
:10151000104600F079FE009769462C48CDE9014558
:1015200000F072FE2B4C2A48E4E802054FF44030EC
:1015300020C4A4E8200F64E80805264838E0B46316
:10154000002211461220A66300F0B0FF122000F026
:101550009FFF07B0BDE8F08FDFF87CC06345F8D18E
:101560000B6843F400730B60096801F40071059186
:10157000016841F0010101600068009700F001007E
:10158000059069461046CDE9014500F03DFE114C3D
:101590000F486034303001C44FF00070E4E80205B9
:1015A0004FF44030A4E8200F64E808050948603093
:1015B00000F072FD0028C2D0FFF733FDBFE7000046
:1015C0000020014044380240000002400008024070
:1015D000106402408806002000210140F8B50E4644
:1015E00000210446009190F83C00012807D001201A
:1015F00084F83C0020688368DB0702D011E00220F9
:10160000F8BD836843F0010383603748374B0068B7
:10161000B0FBF3F000EB400000E0401E009000281B
:10162000FBD120688368DB075CD0236C40F2016546
:10163000AB4343F4807323644068400505D5206CB8
:1016400020F4005040F480502064206CC00404D585
:10165000606C20F00600606400E0616484F83C1077
:10166000A16B2448224DC863A16B23480864A16B79
:101670002248C86421686FF0220008602068416831
:1016800041F0806141602068816841F4807181602F
:101690002168134632464C31A06B00F067FD686844
:1016A0001749C006206806D088421BD1816811F016
:1016B000405F13D016E08842F8D0124A904203D11E
:1016C000D1F80423D206F1D00F4A90420AD1D1F8C2
:1016D000041301F01F011029E8D303E0816841F0F1
:1016E000804181600020F8BD5C00002040420F0076
:1016F0000023014061080008E5080008CF08000841
:1017000000200140002101400022014090F82020EB
:10171000012A07D0022A05D0416A41F480214162A2
:1017200001207047006842690A4342610020704707
:10173000F0B590F820500468A468012D05D0022D62
:1017400003D0416A41F4802153E014F0406F01D18D
:10175000E5004BD5C4F30164022C03D9416A41F47E
:10176000000146E00125A5401D608D684FF4C0735F
:101770009DB1CE6835434E6845EAC605066803EB61
:101780000417F5514FF4C275076805EB04150E698F
:101790007E51097D012905D009E00E88CD6845EA12
:1017A0004655EBE701684E5946F480764E51117963
:1017B000D2F805504FF4C67641EA0525016806EBDC
:1017C00004168D511178D2F801204FF4C47541EA06
:1017D0000221026805EB04155151006803EB041166
:1017E000425842F0010242500020F0BD416A41F4EB
:1017F000001141620120F0BD10B590F82020012AAF
:1018000007D0022A05D0416A41F4802141620120BB
:1018100010BD3B48D0F8002242F00102C0F800227F
:10182000D0F8002222F47C52C0F80022D0F8002226
:101830004B6A42EA0322C0F800220A7D02F01F032D
:1018400001229A40D0F81C329343C0F81C32CB6975
:10185000B3B9D0F80C329343C0F80C328C894B6882
:1018600064F31F434C6900EBC404C4F840320C8994
:101870000B6864F31F434C6900EBC404C4F84432A2
:10188000CB69012B16D1D0F80C321343C0F80C32BF
:101890000C884B6864F31F434C6900EBC404C4F824
:1018A00040320C89CB6864F31F434C6900EBC404DD
:1018B000C4F844328B69002BD0F804320ED01343A5
:1018C000C0F804320B69002BD0F8143208D013434F
:1018D000C0F81432096A012904D008E09343EFE705
:1018E0009343F5E7D0F81C121143C0F81C12D0F84E
:1018F000001221F00101C0F80012002010BD00000C
:1019000000640040704730B590F82040012C05D0AD
:10191000022C03D0416A41F480215DE00468002973
:1019200055D02469A40754D04FF4D874056804EB4B
:1019300001142D5915F00405956005682D594ED0F8
:10194000ED08556005682C59C4F34004D4604FF489
:10195000DA74056804EB01142D5905F00F051561C3
:1019600005682D59C5F30725956105682C59240C88
:1019700054614FF4DC72046802EB0112A4581C702D
:101980000468A458240A5C700468A458240C9C7051
:101990000468A258120EDA704FF4DE72046802EB8B
:1019A0000112A4581C710468A458240A5C710468CC
:1019B000A458240C9C710468A258120EDA710068B5
:1019C00081B1016941F020010161002030BDE4686E
:1019D000A8E7416A41F400114162012030BD6D0D5C
:1019E0001560AFE7C16841F02001C160EDE72DE966
:1019F000F05F0546006800244669D0F804908768C7
:101A0000D0F80CB0D0F810A0D0F81880F10748D06A
:101A1000F90714D001218160B80703D5284600F0EA
:101A200052FA0CE0780702D54FF4006407E038075B
:101A300002D54FF4805402E0284600F043FAF8053E
:101A400016D529684FF480708860B80503D52846FC
:101A500000F03BFA0CE0780502D544F4005407E0AE
:101A6000380502D544F4804402E0284600F02CFA00
:101A7000F80316D529684FF480308860B80303D581
:101A8000284600F024FA0CE0780302D544F4004420
:101A900007E0380302D544F4803402E0284600F021
:101AA00015FA300707D55FEACB6004D52968102006
:101AB00044F40074C86070074FF0080707D55FEA68
:101AC0000B7004D52868C760284600F061F9B0079C
:101AD00006D52868C068800702D0284600F05AF969
:101AE000700607D55FEACA6004D52968102044F45F
:101AF00080640861B00607D55FEA0A7004D52868DB
:101B00000761284600F0AEF9F00606D5286800699E
:101B1000800702D0284600F0A6F9B00308D55FEA96
:101B2000C96005D5296810204860284600F09CF956
:101B3000F00307D55FEA097004D528684760284696
:101B400000F0C6F9300446D55FEA497040D5F0058B
:101B500004D55FEAC87001D044F00104B00504D593
:101B60005FEA887001D544F00204700504D55FEA8D
:101B7000487001D544F00404300529D518F0700FE1
:101B800026D008F07000402815D006DC102809D0B7
:101B900020280AD0302816D10AE050280ED060281C
:101BA00011D10EE044F008040DE044F010040AE006
:101BB00044F0200407E044F0400404E044F08004D2
:101BC00001E044F480742868816921F0700181612A
:101BD000296804204860002C05D0686A20436862A8
:101BE0002846FFF78FFEBDE8F09F70B5040003D0D4
:101BF00094F8200010B104E0012070BD204600F0F0
:101C000081F82068016821F00201016000F0E0FB2A
:101C10000546052604E000F0DBFB401B0A2811D82E
:101C2000206840688007F6D42068016841F001010F
:101C3000016000F0CDFB05460BE000F0C9FB401B46
:101C40000A2806D9606A40F40030606284F8206097
:101C5000D2E720684068C007EFD0207E01282068C6
:101C600001683DD021F080010160607E012820687C
:101C7000016838D021F040010160A07E0128206871
:101C8000016833D021F020010160E07E0128206846
:101C900001682ED041F010010160207F01282068EA
:101CA000016829D021F008010160607F01282068C7
:101CB000016824D021F004010160D4E90201084345
:101CC000D4E90412114308436168491E084321689E
:101CD000C86100206062012084F82000002070BDEF
:101CE00041F08001C0E741F04001C5E741F020012B
:101CF000CAE721F01001CFE741F00801D4E741F035
:101D00000401D9E710B586B0044614216846FEF7F1
:101D10008FFA1C492068884231D11B480021026893
:101D200042F000720260006800F0007005901648F2
:101D30001038026842F002020260006800F00200FF
:101D400005904FF4407000900220CDE9010103207E
:101D500003900920049069460C4800F055FA0022CF
:101D60001146132000F0A2FB132000F091FB00228B
:101D70001146142000F09AFB142000F089FB06B0F5
:101D800010BD0000006400404038024000040240E2
:101D90007047000010B500682B4988421ED12B4BBC
:101DA0000021A3F11C022A48FFF7ADFD274929486D
:101DB0001C39294A0C6801F12403A4F58074033C02
:101DC0000DD0012C37D00E2C08D1821E0B7F10783D
:101DD000497F63F3030061F30710107010BD11F821
:101DE0001C4F04704C7844700488DFED1C0A00EE30
:101DF000104A1C80B8EE400A20EE200A82ED070A45
:101E00008C780470CC7844700088588011480C7924
:101E1000801C04704C7944708C798470C979C170CD
:101E200090ED000A0E4883ED010A82ED080A41692F
:101E3000491C416110BD0C7F0470497F41700088CE
:101E40001881908410BD000000640040AC000020A8
:101E50004807002002000020A40500206F12833AEA
:101E6000E0050020704770477047000070B50446D9
:101E700090F82000012804D0606A40F400206062DD
:101E800018E0022084F820002068016821F0010198
:101E9000016000F09DFA05460EE000BF00F098FAE0
:101EA000401B0A2808D9606A40F4003060620520AF
:101EB00084F82000012070BD20684068C007EDD183
:101EC000606270BD704770477047704770477047D9
:101ED000704790F83510022903D080214165012018
:101EE0007047052180F835100068016821F0010174
:101EF00001600020704700002DE9F84304464FF0D0
:101F00000009CDF8009063484FF41651A56D0068A4
:101F1000B0FBF1F72E6894F85C10082000FA01F18C
:101F200031420FD021680A6852070BD50A6822F0A7
:101F300004020A6094F85C108840A860606D40F06C
:101F40000100606594F85C104FF0010808FA01F098
:101F5000304208D021684969090604D5A860606D3F
:101F600040F00200606594F85C1004208840304224
:101F700008D021680968890704D5A860606D40F021
:101F80000400606594F85C1010208840304218D03E
:101F900021680968090714D5A86020680168490309
:101FA00004D50068000308D5A16C07E00168C905E5
:101FB00003D4016821F008010160216C09B12046B9
:101FC000884794F85C1020208840304231D0216846
:101FD0000968C9062DD5A86094F835000528206841
:101FE000016806D0490347D5006800031DD4616C21
:101FF0001CE021F0160101602068416921F0800198
:102000004161206C08B9A06C20B12068016821F002
:102010000801016094F85C103F208840A86084F8B3
:10202000349084F83580216D1FE0E16B09B12046C2
:102030008847606D00282BD0606DC00714D0052044
:1020400084F835002068016821F0010101600098E2
:10205000401C0090B84203D820680068C007F6D141
:1020600084F8349084F83580E16C002910D001B0F8
:102070002046BDE8F04308470168C905D5D401688A
:1020800021F01001016084F8349084F83580CCE7A9
:10209000BDE8F8835C0000202DE9F041044600F023
:1020A00097F906465CB1002584F83450022084F884
:1020B00035002068016821F0010101600DE0012078
:1020C000BDE8F08100F084F9801B052805D92020A7
:1020D0006065032084F83500F2E720680068C007D7
:1020E000F0D12268116820480140D4E90103184367
:1020F000D4E903363343184363691843A36918438B
:10210000E3691843236A18430843616A042903D129
:10211000D4E90B1319430843106020684069666ACC
:1021200020F0070130460E43012704280CD1A06A95
:102130000643E06A40B12046FEF7A8FE20B14020E9
:10214000606584F83570BAE7206846612046FEF77E
:1021500089FE94F85C203F2191408160656584F898
:1021600035700020ACE700003F8010F02DE9F04111
:102170000446866D90F83400002501280DD001201A
:1021800084F8340094F835700020012F07D084F8CB
:10219000340002252846BDE8F0810220FBE7022733
:1021A00084F8357060652046FEF79AFE94F85C105E
:1021B0003F208840B0602068016841F0160101604E
:1021C0002068416941F080014161206C20B12068A4
:1021D000016841F0080101602068016841F00101D7
:1021E0000160D7E770B5044600F0F2F80546601CC0
:1021F00002D004480078044400F0EAF8401BA042F2
:10220000FAD370BD600000202DE9F84FDFF87CB1F3
:1022100000224FF001084FF0030A4FF00F090BF1B5
:10222000040E00BF0B6808FA02F42340A3426ED1EB
:102230004D68022D01D0122D0ED1D50800EB850C72
:10224000DCF820505607F70E09FA07F6B5430E6979
:10225000BE402E43CCF82060066855000F790AFA7C
:1022600005FC07F0030726EA0C06AF40374307607A
:102270004E68012E05D0022E03D0112E01D0122E51
:102280000ED18668CF6826EA0C06AF4037438760D8
:102290004668A6430C79C4F3001494403443446068
:1022A000C6688C6826EA0C06AC403443C4604C68AF
:1022B000E40065D5364C256845F4804525602468E2
:1022C00022F0030504F480440094324C2E19D6F811
:1022D000084895072F0F09FA07F5AC432E4DA84281
:1022E00001D1002524E02D4DA84201D101251FE098
:1022F0002B4DA84201D102251AE02A4DA84201D156
:10230000032515E0284DA84202D1042510E037E04E
:10231000264DA84201D105250AE0254DA84201D14C
:10232000062505E0234DA84201D1072500E0082538
:10233000BD402543C6F80858DBF800405D464E68AE
:102340009C43F60300D51C432C60DEF80040754624
:102350004E689C43B60300D51C432C600B4D0835DA
:102360002C684E689C43F60200D51C432C60074D38
:102370000C352C684E689C43B60200D51C432C607B
:10238000521C102AFFF44EAFBDE8F88F003C01400C
:102390004438024000300140000002400004024086
:1023A00000080240000C02400010024000140240ED
:1023B00000180240001C0240426931EA020200D1CA
:1023C0000904816170470AB1816170470904FBE724
:1023D0000148806870470000600000200248816862
:1023E0000278114481607047600000200B4810B5EE
:1023F000016841F400710160016841F4806101608D
:10240000016841F480710160032000F06FF8002042
:1024100000F006F800F024F8002010BD003C024057
:1024200070B50D4D04464FF47A712878B1FBF0F089
:102430000A490968B1FBF0F000F0E2FA48B9102C43
:1024400007D200222146501E00F030F800206C60B8
:1024500070BD012070BD0000600000205C00002005
:102460000A4808B5016841F480410160006800F441
:10247000804000900548001F016841F080510160D4
:10248000006800F08050009008BD00004438024011
:10249000002809DB00F01F02012191404009800063
:1024A00000F1E020C0F8001170470000F0B40E4BBE
:1024B0001B680C46C3F30223C3F10705042D00D9A2
:1024C0000425191D072901D2002300E0DB1E012687
:1024D00006FA05F1491E214099409E40761E16409D
:1024E0003143F0BC01F0B6BE0CED00E0064900F04F
:1024F000070208684FF6FF03184040EA0220034A2B
:1025000010430860704700000CED00E00000FA0581
:102510002DE9F0470E46050065D0DFF81481D8F8A4
:102520000000F7B200F00F00B04207D288F8007048
:10253000D8F8000000F00F00B04254D128683D4C9C
:10254000810712D5400703D5206840F4E050206091
:102550002878000703D5206840F460402060206898
:10256000A96820F0F000084320602878C0072DD02B
:10257000304968680839012812D0022813D003288E
:1025800011D00968890700292DDA216821F003019B
:1025900001432160FFF71CFF814641F2883A0EE0BB
:1025A00009688903EFE709688901ECE7FFF710FF85
:1025B000A0EB0901514502D90320BDE8F08720684E
:1025C000696800F00C00B0EB810FEFD1D8F8001073
:1025D000404601F00F01B14207D90770006800F0D2
:1025E0000F00B04201D00120E7E72878400705D569
:1025F0002068E96820F4E05008432060287800074C
:1026000006D52068296920F4604040EAC1002060B6
:1026100000F036F82168084AC1F30311515CC84044
:10262000064908600020FFF7FBFE0020C5E7000018
:10263000003C024008380240185200085C000020AC
:102640000448054900680968044AC1F38221515CC5
:10265000C84070475C00002008380240285200083B
:102660000448054900680968044AC1F34231515CD5
:10267000C84070475C00002008380240285200081B
:10268000154810B5006810F00C02144813D0144916
:10269000042A0FD0082A0ED10F4C241F2268236869
:1026A00002F03F025B0207D52068C0F38810A0FB50
:1026B000010106E0084610BD2168C1F38811A1FBA5
:1026C00000010023FDF77CFD2168C1F30141491C95
:1026D0004900B0FBF1F010BD083802400024F400BE
:1026E00000366E012DE9F84F050076D02878DFF826
:1026F000F8B2BE4CC00749D0DBF800105846C1F311
:102700008101012908D00068C0F3810002280AD1A4
:10271000201D0068400206D52068800336D5686811
:102720000028E2D032E06868B0F5803F10D0B0F504
:10273000A02F206810D020F480302060206820F482
:10274000802020606868A0B1FFF742FE06460CE0DA
:10275000206840F48030F4E740F480202060F7E700
:10276000FFF736FE801B642873D820688003F7D5F6
:102770000CE0FFF72DFE064605E000BFFFF728FE40
:10278000801B6428F0D820688003F7D42878DFF80D
:10279000608280074FF000093ED5DBF800105846F4
:1027A00011F00C0F09D00068C0F3810002280BD192
:1027B0008D48001F0068400206D42068800715D5A8
:1027C000E868012809D111E0E868B8B10120C8F82B
:1027D0000000FFF7FDFD064605E002E1FFF7F8FD0A
:1027E000801B0228C0D820688007F7D52068296997
:1027F00020F0F80040EAC10020600DE0C8F8009029
:10280000FFF7E6FD064604E0FFF7E2FD801B022825
:102810001FD820688007F7D42878000722D5724E89
:10282000744869696C3671B101210160FFF7D0FD10
:10283000074604E0FFF7CCFDC01B022809D830682A
:102840008007F7D50EE0C0F80090FFF7C1FD0746FE
:1028500005E083E0FFF7BCFDC01B02287ED830688E
:102860008007F7D42878400768D5DFF87CA10027D7
:102870000AF1380ADAF80000C0000BD4DAF80010C8
:1028800041F08051CAF80010DAF80000012700F08A
:1028900080500090584E3068C00510D4306840F425
:1028A00080703060FFF794FD009005E0FFF790FD29
:1028B0000099401A022851D83068C005F6D54A4E12
:1028C000A868683601280FD00528306810D020F09D
:1028D00001003060306820F004003060A868B8B1B2
:1028E000FFF776FD00900FE0306840F00100F4E75C
:1028F00040F004003060F7E7FFF76AFD0099411AE5
:1029000041F28830814264D830688007F4D50EE007
:10291000FFF75EFD009007E0FFF75AFD0099411AAE
:1029200041F28830814254D830688007F4D42FB106
:10293000DAF8001021F08051CAF80010A869C0B37D
:10294000DBF80010C1F3810102294AD00228484671
:1029500007D0C8F86000FFF73BFD00E039E005460E
:102960003AE04746C8F86000FFF732FD064604E04B
:10297000FFF72EFD801B02282BD820688001F7D49A
:10298000D5E907010843A96A1C4A490802EB01413D
:102990006A6A41EA8211084395F82C1040EA016105
:1029A0001148001F016001203866FFF711FD054640
:1029B00005E014E0FFF70CFD401B022809D8206851
:1029C0008001F7D50BE000BFFFF702FD401B022896
:1029D00002D90320BDE8F88F20688001F4D40020DC
:1029E000F8E70120F6E7000008380240003802400E
:1029F00000004742800E4742007000400000FFFF89
:102A000010B5401EB0F1807F01D3012010BD4FF002
:102A1000E02460610F21601701F01CFC0020A06120
:102A200007202061002010BD7047704770B590F8F6
:102A30003C20012A19D0012400F83C4F02224270A8
:102A400050F83C3C5A689D6822F070060A68496854
:102A5000324325F0800529435A6050F83C2C9160A0
:102A6000447000210170084670BD022070BD10B591
:102A7000040003D094F83D0010B107E0012010BD20
:102A8000002084F83C00204600F00CF8022084F876
:102A90003D00211D206801F073F8012084F83D00FD
:102AA000002010BD08B501682748B1F1804F11D052
:102AB000264A91421DD1016841F00201016000687F
:102AC000002200F00200009011461D20FFF7EEFCEE
:102AD0001D2033E0016841F001010160006800221F
:102AE00000F00100009011461C20FFF7DFFC1C20C5
:102AF00024E0174A91420ED1016841F010010160B3
:102B00000068002200F01000009011463620FFF708
:102B1000CDFC362012E00F48814213D10A48001D37
:102B2000016841F0020101600068002200F002002B
:102B3000009011462C20FFF7B9FC2C20BDE808407E
:102B4000FFF7A6BC08BD000040380240000400406A
:102B500000100040000401400168CA6842F0010210
:102B6000CA600068816801F00701062903D0016886
:102B700041F0010101600020704770B5044690F8F3
:102B80003C00012817D0012584F83C50022084F82D
:102B90003D002068826822F0770222F47F42826042
:102BA0000868502830D00DDC20284DD005DC98B3C3
:102BB00010283BD148E0022070BD302844D0402886
:102BC00034D139E0602828D0702806D0B0F5805F75
:102BD0002CD0B0F5005F29D10AE0CB68D1E9012102
:102BE000206801F03EF82068816841F0770109E033
:102BF000CB68D1E90121206801F033F820688168B1
:102C000041F48041816011E0CA684968206801F0A0
:102C1000FDF85021206807E016E0CA68496820687E
:102C200001F005F96021206801F025F884F83D5095
:102C3000002084F83C0070BDCA684968206801F033
:102C4000E5F840212068EFE7226801461046EBE7EF
:102C5000704770B50446006801694FF00005C9432C
:102C6000890715D4C168C943890711D4E91E0161D8
:102C700001202077206880698007204602D0FFF776
:102C8000E7FF04E000F0C0F8204600F042F92577A5
:102C900020680169C943490717D4C168C943490776
:102CA00013D46FF00401016102202077206880694D
:102CB00010F4407F204602D0FFF7CAFF04E000F086
:102CC000A3F8204600F025F9257720680169C9435B
:102CD000090716D4C168C943090712D46FF0080167
:102CE0000161042020772068C0698007204602D057
:102CF000FFF7AEFF04E000F087F8204600F009F986
:102D0000257720680169C943C90617D4C168C9433A
:102D1000C90613D46FF010010161082020772068E4
:102D2000C06910F4407F204602D0FFF791FF04E015
:102D300000F06AF8204600F0ECF825772068016979
:102D4000C943C90708D1C168C943C90704D1891E4D
:102D50000161204600F000F920680169C9430906B5
:102D600009D4C168C943090605D46FF08001016127
:102D70002046FFF759FE20680169C943490609D476
:102D8000C168C943490605D46FF04001016120467E
:102D900000F002F920680169C94389060BD4C168B3
:102DA000C943890607D46FF0200101612046BDE8C0
:102DB0007040FFF73ABE70BD10B586B004461421CE
:102DC0006846FDF735FA2068B0F1804F15D10C4800
:102DD0000021026842F0010202600068022200F055
:102DE0000100059001200090CDE901210321CDE9EA
:102DF000031069460348FFF707FA06B010BD00004C
:102E00003038024000000240704770B5044690F828
:102E10003C000D4601280DD0012684F83C600220BC
:102E200084F83D0042B1042A18D0082A2AD00C2A7E
:102E30004DD139E0022070BD206800F025FF2068E8
:102E4000816941F0080181612068816921F00401F4
:102E50008161206881692A69114311E0206800F0CE
:102E600043FF2068816941F40061816120688169C4
:102E700021F480618161206881692A6941EA022127
:102E8000816124E0206800F065FF2068C16941F09D
:102E90000801C1612068C16921F00401C161206895
:102EA000C1692A69114311E0206800F087FF20689A
:102EB000C16941F40061C1612068C16921F4806188
:102EC000C1612068C1692A6941EA0221C16184F8AF
:102ED0003D60002084F83C0070BD10B5040003D0B4
:102EE00094F83D0010B107E0012010BD002084F8E7
:102EF0003C00204600F00CF8022084F83D00211D23
:102F0000206800F03DFE012084F83D00002010BD47
:102F10007047704710B504460068012200F094FE27
:102F20000B492068884202D00A49884203D1416C8B
:102F300041F4004141642068816801F007010629DD
:102F400003D0016841F001010160002010BD0000C4
:102F500000000140000401400068B0F1804F07D03C
:102F60000949884206D109488168491C8160704737
:102F700001F078BF0649884201D102F0B9B805498D
:102F80008842F4D1FDF744BC00040040E005002075
:102F90000010004000040140704708B5C16B0829CB
:102FA00003D1006801684068009008BD70B50268F0
:102FB00004461068D168536910F00F0F50D003F029
:102FC000010501F4907635435DD0C20705D0CA05EE
:102FD00003D5E26B42F00102E263420705D5DA074E
:102FE00003D0E26B42F00202E263820705D5DA0702
:102FF00003D0E26B42F00402E263020705D5DA0770
:1030000003D0E26B42F00802E263E26B002A33D0A5
:10301000800604D5880602D5204600F030FF2068DF
:103020004069E16BC0F38010090700D428B3204643
:1030300000F017FF2068416949061AD5416921F05F
:1030400040014161606BA0B11B490165606BFEF7F7
:1030500040FF002810D0606B016DBDE8704008474C
:10306000830610D58B060ED52046BDE8704000F0D3
:1030700006BF2046FFF791FF70BD2046FFF78DFF8A
:103080000020E06370BD030606D50B0604D520467C
:10309000BDE8704001F094B84006F3D54806F1D57C
:1030A000D168204621F04001D160202184F83910F8
:1030B00000F0BEF870BD0000533E000870B504007B
:1030C00004D094F83900002510B106E0012070BD4D
:1030D00084F83850204600F023F8242084F8390082
:1030E0002068C16821F40051C160204600F012FF41
:1030F0002068016921F4904101612068416921F053
:103100002A0141612068C16841F40051C160E56352
:10311000202084F8390084F83A00002070BD0000B7
:1031200010B586B0044614216846FDF781F81749AA
:103130002068884228D11648016841F400310160B6
:10314000006800F40030059011481038016841F023
:10315000010101600068694600F0010005900C2043
:10316000009002200190012002900320039007208C
:1031700004900848FFF748F8002211462620FFF780
:1031800095F92620FFF784F906B010BD00440040F1
:10319000403802400000024090F83A30202B22D103
:1031A000F9B1F2B190F83830012B1CD081628285E0
:1031B000C2850021C163222280F83A2080F83810AD
:1031C0000168CA6842F48072CA6001684A6942F0C4
:1031D00001024A610068C16841F02001C16000201D
:1031E00070470120704702207047000008B5006852
:1031F0000B49884213D10B48006801684068009071
:10320000012209490748FFF7C7FF07480078FDF783
:10321000BFFEBDE8084040210448FFF7CDB808BD17
:103220000044004070080020C40000200004024058
:103230007047FEE77FB500211B4800910191029184
:10324000184A0391026001244FF480320461C0E9FE
:103250000121017680F820101203C262022552106B
:10326000C5618262C16080F830404461FEF7ECF8CD
:1032700008B1FDF7D6FE0420CDE9000469460A48EE
:103280000294FDF7DDFE08B1FDF7CBFE0F20CDE97E
:10329000000569460448FDF7D3FE002801D0FDF77C
:1032A000C0FE7FBD00200140F80500201FB50021B1
:1032B0001648009101910291134A03910260012482
:1032C0004FF480320461C0E90121017680F82010BA
:1032D0001203C2624FF06062C4618262C16080F812
:1032E00030404461FEF7B0F808B1FDF79AFE0520C2
:1032F000CDE90004694605480294FDF7A1FE0028C7
:1033000001D0FDF78EFE1FBD0021014040060020C8
:10331000104810B50E4901600321416000214FF4AF
:1033200020228160C0E903124FF4801242610176CD
:10333000012242768176C17601774177FEF755FC0E
:10334000002803D0BDE81040FDF76BBE10BD0000A3
:1033500000640040480700200D4808B5016841F4AA
:10336000800101600068002200F480000090114696
:103370003820FFF79BF83820FFF78AF80022114623
:103380003A20FFF793F8BDE808403A20FFF780B8ED
:1033900030380240F0B587B014216846FCF748FF8A
:1033A00021480024016841F080010160016801F0BA
:1033B00080010591016841F001010160016801F09F
:1033C00001010591016841F004010160016801F00B
:1033D00004010591016841F0020101600068134E8B
:1033E00000F002000590002280213046FEF7EBFF3E
:1033F0000F4F002240213846FEF7E5FF8020009065
:103400000125CDE90154694630460394FEF7FCFEE0
:1034100040200090CDE90154694638460394FEF7F8
:10342000F3FE07B0F0BD000030380240000002405B
:103430000004024010B58EB000240794089409944B
:103440000A940B941C2168460C94FCF7F1FE1E486C
:103450004FF0804101600121C0E9011442F2CF0127
:10346000C0E903148461FFF702FB08B1FDF7D9FD41
:103470004FF48050079007A91348FFF77EFB08B16F
:10348000FDF7CFFD1048FFF728FD08B1FDF7C9FD96
:103490002020CDE90B040BA90B48FFF7C7FA08B1B0
:1034A000FDF7BFFD6020CDE90004029400226946CB
:1034B00005480494FFF7A9FC08B1FDF7B2FD0248E6
:1034C000FFF77AFC0EB010BD7007002010B586B073
:1034D000002417480094019402940394049413491F
:1034E000059401600121C0E9011440F21711C0E9FF
:1034F00003148461FFF7BBFA08B1FDF792FD4FF4A6
:103500008050009069460A48FFF737FB08B1FDF785
:1035100088FD2020CDE9040404A90548FFF786FAB8
:10352000002801D0FDF77DFD06B010BD000400406D
:10353000B00700201CB500240F4800940D490194E9
:10354000016042F2CF01C0E9011440F2E731846129
:10355000C160FFF78CFA08B1FDF763FD009469467E
:1035600005480194FFF762FA002801D0FDF759FDE4
:103570001CBD000000100040F007002010B586B010
:10358000002418480094019402940394049414496C
:1035900005940160A721C0E9011442F20F71C0E94E
:1035A000031444618461FFF762FA08B1FDF739FD45
:1035B0004FF48050009069460A48FFF7DEFA08B1E0
:1035C000FDF72FFD2020CDE9040404A90548FFF7ED
:1035D0002DFA002801D0FDF724FD06B010BD000033
:1035E00000040140300800200C4810B50A49016071
:1035F0004FF4E1314160002181600C22C160C0E9DB
:1036000004128161C161FFF759FD002803D0BDE8B4
:103610001040FDF706BD10BD0044004070080020BA
:1036200010B50648FEF722FC02210448FEF76EF8AA
:10363000BDE810400148FDF72DBA00004807002002
:1036400010B5012205490648FFF7A6FD04480068A9
:10365000416941F00101416110BD0000C40000203A
:1036600070080020FEE7704710B504462DED108B62
:10367000D0ED04EAC0ED07EA90F834009FED8CFA33
:1036800094ED060A94ED02AA94ED039A7EEEC0AA88
:1036900094ED0C0AD4ED0B8AB0EEEE8AB0EEC0EADF
:1036A00094ED000A002860EE2E9A7CD0F5EEC08AD8
:1036B000F1EE10FA06D194ED080A30EE2E0A84EDF0
:1036C000080A34E0B0EEE80AB4EEC08AF1EE10FA6F
:1036D0002DD21EEE900AFCF74FFF41EC1D0B18EEA9
:1036E000900AFCF749FF41EC1C0B18EE100AFCF79E
:1036F00043FF41EC1B0B18EE900AFCF73DFF53EC27
:103700001B2BFCF741FE53EC1C2BFCF7B5FE53ECD6
:103710001D2BFCF73FFE41EC1B0B206AFCF72CFF36
:1037200053EC1B2BFCF78FFDFCF739FF206294ED67
:103730000E0AB4EEC08AF1EE10FA01D8012000E0C2
:103740000020B5EEC09AF1EE10FA12D094ED080AFE
:10375000B4EEC90AF1EE10FA02DD84ED089A08E031
:10376000F1EE490AB4EEE00AF1EE10FA01D2C4ED2E
:10377000080AB4EECE8AC4ED09AAF1EE10FA03D21B
:103780002AEE8F0A84ED090A30B100BF94ED010AD8
:10379000D4ED080A40EE209A94ED090A4AEE009A08
:1037A000C4ED059A00E01BE094ED0A0AB5EEC00AEC
:1037B000F1EE10FA11D0F4EEC09AF1EE10FA01DD3C
:1037C00084ED050AD4ED050AB1EE400AF4EEC00A14
:1037D000F1EE10FA01D284ED050ABDEC108B10BD9C
:1037E000F5EEC08AF1EE10FA06D194ED080A30EE3B
:1037F0002E0A84ED080A34E0B0EEE80AB4EEC08A7E
:10380000F1EE10FA2DD21EEE900AFCF7B5FE41EC57
:103810001D0B18EE900AFCF7AFFE41EC1C0B18EEE6
:10382000100AFCF7A9FE41EC1B0B18EE900AFCF7FE
:10383000A3FE53EC1B2BFCF7A7FD53EC1C2BFCF752
:103840001BFE53EC1D2BFCF7A5FD41EC1B0B206A66
:10385000FCF792FE53EC1B2BFCF7F5FCFCF79FFEEC
:103860002062B5EEC09AF1EE10FA12D094ED080A7B
:10387000B4EEC90AF1EE10FA02DD84ED089A08E010
:10388000F1EE490AB4EEE00AF1EE10FA01D2C4ED0D
:10389000080AB4EECE8AC4ED09AAF1EE10FA03D2FA
:1038A0002AEE8F0A84ED090AC4ED06EA6EE70000ED
:1038B000CDCCCC3D70477047F0B514460E46074658
:1038C000FDF7B0FB0346384600F0B8F8014600208B
:1038D00002E03A5C3254401C9842FADB0025F55471
:1038E000581C06E0A0EB030C3A5CA444401C0CF806
:1038F000012C8842F6DB65545B1C04D13146384606
:10390000FDF798FA2570F0BD2DE9F04106462DED42
:10391000088B4FF000089FED438B4446B0EE489A69
:10392000F0EE689A305D58B1A0F130010A2903D356
:103930002E2801D02D2803D1641CE4B20A2CF1D327
:10394000002504E0705D2E2803D06D1CEDB2A54269
:10395000F8D300279FED35AB15E0F05D2D2818D08A
:103960003038FCF7F8FD41EC1B0B53EC1A2B51ECF3
:10397000190BFCF70FFD53EC1B2BFCF764FC41EC1F
:10398000190B7F1CFFB2AF42E7D37F1CFDB22F465D
:1039900018E04FF00108F4E7705D30380A2813D2C0
:1039A000FCF7D9FD41EC1B0B53EC1A2B51EC180B17
:1039B000FCF7F0FC53EC1B2BFCF745FC41EC180B1F
:1039C0006D1CEDB2A542E7D300259FED1AABE41BB9
:1039D0000AE000BF53EC1A2B51EC180BFCF7DAFC91
:1039E00041EC180B6D1CEDB2AC42F3DC53EC182B20
:1039F00051EC190BFCF727FC41EC100BB8F1000F50
:103A000005D051EC100B81F0004141EC100B51EC52
:103A1000100BFCF7C4FDBDEC088B00EE100ABDE8EE
:103A2000F081000000000000000000000000000025
:103A3000000024409A9999999999B93F014600202C
:103A40000A5C401C002AFBD1401E704770B50B4633
:103A5000074C04E0E618C55C761A5B1C357093428F
:103A6000F8DB00202244511A0870014870BD0000A4
:103A7000E0010020FEF7B2BC30B593B030216846BB
:103A8000FCF7D6FB14210CA8FCF7D2FB1948002543
:103A9000016841F080510160006800F08050119091
:103AA0001548016841F4804101600068022400F477
:103AB0008040119001200090000401908001CDE928
:103AC00006400C200890A820CDE9090404200B90A2
:103AD0006846FEF707FE0CA90F2081E831004FF47D
:103AE000A0500F90E002109005210CA8FEF710FDE9
:103AF00013B030BD403802400070004010480168EB
:103B000041F4700101600F48016841F0010101605A
:103B10000C4A00210832116002680B4B1A40026007
:103B2000031D0A4A1A60026822F4802202600548D6
:103B30000C30016002495806803908607047000067
:103B400088ED00E000380240FFFFF6FE1030002450
:103B50000148FFF77EB80000700700200148FFF71A
:103B600078B80000B00700200148FFF772B80000E5
:103B7000F00700200148FFF76CB800003008002073
:103B8000F0B50268254C264D264E274F274B4FF0A7
:103B9000804CA04209D0604507D0A84205D0B04271
:103BA00003D0B84201D0984204D122F0700E4A6886
:103BB00042EA0E02A0421BD0604519D0A84217D09D
:103BC000B04215D0B84213D0984211D0184DA84237
:103BD0000ED0184DA8420BD0174DA84208D0174D53
:103BE000A84205D0164DA84202D0164DA84203D1D6
:103BF00022F44075CA682A434D6922F080022A43A4
:103C000002608A68C2620A688262A04201D0984259
:103C100001D10969016301214161F0BD000001404A
:103C20000004004000080040000C00400004014077
:103C3000004001400044014000480140001800409D
:103C4000001C00400020004010B501F01F030121BE
:103C5000046A99408C430462016A9A4011430162EC
:103C600010BD10B5846842EA032224F47F440A435D
:103C70002243826010BD826822F070020A4342F043
:103C80000701816070470000F0B5026A22F001026E
:103C90000262036A42688469124E24F073050C685C
:103CA0002C4323F002058B682B430D4DA84201D015
:103CB000B04205D123F00807CB683B4323F004034F
:103CC000A84201D0B04205D14D6922F4407215439B
:103CD0008A692A4342608461496841630362F0BD96
:103CE0000000014000040140F0B5026A22F0100219
:103CF0000262026A436884690D6824F4E64444EA77
:103D000005248D6822F0200242EA05120F4D104E64
:103D1000A84201D0B04206D1CF6822F0800242EA28
:103D2000071222F04002A84201D0B04207D14D69EB
:103D300023F4406343EA85038D6943EA85034360C6
:103D40008461496881630262F0BD000000000140A7
:103D500000040140F0B5026A22F480720262026A35
:103D60004368C46922F4007224F073050C68124E93
:103D70002C438D6842EA05220E4DA84201D0B04284
:103D800006D1CF6822F4006242EA072222F4806260
:103D9000A84201D0B04207D14D6923F4405343EA11
:103DA00005138D6943EA05134360C4614968C16323
:103DB0000262F0BD000001400004014030B5026A1B
:103DC00022F480520262046A4268C3690D6823F4D7
:103DD000E64343EA05238D6824F4005444EA05349D
:103DE000084DA84202D0084DA84204D14D6922F4E2
:103DF000804242EA85124260C361496801640462FC
:103E000030BD0000000001400004014010B5036A0D
:103E1000046A24F001040462846924F0F00444EA92
:103E2000021423F00A020A438461026210BD10B535
:103E3000036A23F0100303628369046A23F4704366
:103E400043EA023224F0A00343EA011182610162D5
:103E500010BD10B5806B0021C185C184FFF79DF8AE
:103E600010BD0168CA6822F49072CA6001684A698C
:103E700022F001024A61202180F83A10704710B503
:103E800090F83A10222901D0022010BD8168B1F5C6
:103E9000805F11D00169002901681FD0496801F0D5
:103EA0007F03816A4A1C82620B70C18D491E09041E
:103EB000090CC18518D02BE00269816A002A0268CA
:103EC000526805D0D2B20A80816A491C8162ECE74F
:103ED000C2F308020A80816A891CF7E74A68816A8E
:103EE0004B1C83620A70E0E70168CA6822F0200276
:103EF000CA600168CA6822F48072CA6001684A69AF
:103F000022F001024A61202180F83A10FFF76EF991
:103F1000002010BD2DE9F041044600680169E26807
:103F200021F44051114301612169A068E26908430D
:103F30006169114322680843D16849F20C639943CF
:103F40000143D16020684169A26921F440711143A5
:103F50004161E2696425B2F5004F974897492268AC
:103F60004FF032083FD08A4201D082427CD1FEF726
:103F700077FB00EBC00101EB001061688900B0FB2A
:103F8000F1F6FEF76DFB00EBC00101EB001061687C
:103F90008900B0FBF1F0B0FBF5F06FF01801484379
:103FA00006EB800108EB0110B0FBF5F000F0F00625
:103FB000FEF756FB00EBC00101EB001061688900C1
:103FC000B0FBF1F0B0FBF5F006EB0016FEF748FB96
:103FD00000EBC00101EB001061688900B0FBF1F754
:103FE000FEF73EFBD2E08A4201D082423DD1FEF78D
:103FF00037FB00EBC00101EB001061684900B0FB2A
:10400000F1F0B0FBF5F00601FEF72AFB00EBC00172
:1040100001EB001061684900B0FBF1F7FEF720FBEF
:1040200000EBC00101EB001061684900B0FBF1F04A
:10403000B0FBF5F06FF01801484307EB800108EB87
:10404000C100B0FBF5F000F0F80006EB4006FEF70B
:1040500007FB00EBC00101EB001061684900B0FBF9
:10406000F1F7FEF7FDFA3CE055E0FEF7E9FA00EB68
:10407000C00101EB001061684900B0FBF1F0B0FB3A
:10408000F5F00601FEF7DCFA00EBC00101EB0010D1
:1040900061684900B0FBF1F7FEF7D2FA00EBC0010E
:1040A00001EB001061684900B0FBF1F0B0FBF5F0E6
:1040B0006FF01801484307EB800108EBC100B0FB2B
:1040C000F5F000F0F80006EB4006FEF7B9FA00EB59
:1040D000C00101EB001061684900B0FBF1F7FEF789
:1040E000AFFA00EBC00101EB001061684900B0FBC2
:1040F000F1F0B0FBF5F06FF01801484307EB8001D9
:1041000008EBC100B0FBF5F000F007002168304477
:104110008860BDE8F081FEF793FA00EBC00101EB87
:10412000001061688900B0FBF1F6FEF789FA00EB38
:10413000C00101EB001061688900B0FBF1F0B0FB39
:10414000F5F06FF01801484306EB800108EB011011
:10415000B0FBF5F000F0F006FEF772FA00EBC001DC
:1041600001EB001061688900B0FBF1F0B0FBF5F0E5
:1041700006EB0016FEF764FA00EBC00101EB00103D
:1041800061688900B0FBF1F7FEF75AFA00EBC00155
:1041900001EB001061688900B0FBF1F0B0FBF5F0B5
:1041A0006FF01801484307EB800108EB0110B0FBEA
:1041B000F5F000F00F00A9E70014014000100140E5
:1041C00090F83910212901D0022070478168B1F59B
:1041D000805F016A0BD04A1C026202680978516054
:1041E000C18C491E0904090CC1840ED017E009884E
:1041F0000268C1F30801516001690029016A02D017
:10420000491C0162ECE7891CFBE70168CA6822F0DF
:104210008002CA600068C16841F04001C1600020AE
:10422000704700000148FEF7C1BE00007008002082
:10423000FEE700000FB4054B10B503A9044A02982D
:1042400000F0EAF810BC5DF814FB0000314F0008E4
:104250006C0000200907090E002804DB00F1E020B3
:1042600080F80014704700F00F0000F1E02080F8A3
:10427000141D704702E008C8121F08C1002AFAD1B5
:1042800070477047002001E001C1121F002AFBD1D6
:10429000704700002DE9FF5F82B00021DDE90430A6
:1042A000020DDDF840B0034318D044F61050A2F2DE
:1042B000FF3242431514119801281FD0A5EB0B00C3
:1042C000401C5FEA000A4FF000064E4FDFF83891BD
:1042D000B046504615D5CAF1000413E011980124E8
:1042E0004AA3012801D16FEA0B010298119AC0E993
:1042F0000031C0E9024206B0BDE8F09FCBF10000FA
:10430000DFE704460021404A491842EB0450CDE95A
:10431000001012E0E00707D032463B4640464946CF
:10432000FCF738F88046894632463B461046194627
:10433000FCF730F806460F466410002CEAD1DDE9A0
:104340000401DDE90023BAF1000F06DAFCF722F8D8
:1043500042464B46FCF71EF805E0FCF78DF8424656
:104360004B46FCF789F804460E460022284BFCF722
:1043700025FA03D84FF0FF30014607E00022254B15
:1043800020463146FBF75FFFFCF700FA102409E0F6
:10439000002C0ADB0A220023FBF712FF039B3032BA
:1043A0001A55641E50EA0102F2D1641C039AC4F14A
:1043B00011031444119A012A03D0012208430DD19C
:1043C0000AE0084304D000204FF0110B119072E76F
:1043D000A3EB0B056D1E0DE05B4504DD4FF0000205
:1043E00005F1010504E003DA4FF00002A5F1010533
:1043F000002AECD002981199C0E90231C0E90045C9
:1044000079E70000000014400000F03F3000000099
:104410000000F0430000E03F2DE9FF4F95B09B46C0
:104420008946064600250FE2252877D10024274635
:10443000F84A0121059400E0044316F8013F203BAF
:1044400001FA03F01042F7D130782A2811D06FF02A
:104450002F033078A0F13002092A16D8059A44F0CB
:10446000020402EB820203EB42021044761C059028
:10447000EFE759F8042B0592002A03DA504244F47E
:104480000054059044F00204761C30782E2816D192
:1044900016F8010F44F004042A280DD06FF02F0203
:1044A0003078A0F13003092B09D807EB870302EB22
:1044B0004303C718761CF3E759F8047B761C307861
:1044C0006C280FD006DC4C2817D068280DD06A283D
:1044D00014D104E0742810D07A280FD10DE044F4F0
:1044E00000140AE044F4801401E044F440147278AB
:1044F000824202D104F58014761C761C307866283E
:104500000BD013DC582877D009DC002875D045285B
:10451000F6D04628F4D047281AD19DE118E0632848
:1045200035D0642879D0652812D195E1702873D0F0
:1045300008DC6728F1D069286FD06E280DD06F286D
:1045400006D1B5E073282CD0752875D0782874D0A2
:104550005A46179990476D1C75E1C4F30250022822
:1045600009D003280DD0D9F8001004280DD00D6013
:1045700009F1040967E1D9F80010EA17C1E900520E
:10458000F6E7D9F800100D80F2E70D70F0E719F8A2
:10459000041B8DF8001000208DF80100EA46012070
:1045A00003E059F804AB4FF0FF3061074FF0000112
:1045B00002D40DE008F101018846B9420FDA8045C6
:1045C000F8DB1AF808100029F4D108E008F101011D
:1045D00088468142FADB1AF808100029F6D10598BE
:1045E0005B46A0EB080721463846179A00F094FA7C
:1045F000284400EB080507E04DE029E10DE01AF83A
:10460000010B5A4617999047B8F10108F7D25B465B
:1046100021463846179A13E142E00A220092C4F379
:1046200002524FF0000A022A08D059F804CB032A9C
:104630004FEAEC710AD00DE029E02AE009F1070108
:1046400021F00702F2E802C1914609E00FFA8CFC62
:104650004FEAEC71042A03D14FFA8CFC4FEAEC715B
:10466000002907DA0A460021DCF1000C61EB0201A7
:104670002D2202E0220504D52B228DF804200122F0
:1046800003E0E20701D02022F7E7904659E00A2133
:1046900002E010220DE010214FF0000A00910BE023
:1046A00010224FF0000A44F004040827009203E0AF
:1046B00008224FF0000A0092C4F30252022A05D0E9
:1046C00059F804CB0021032A08D009E009F10701B9
:1046D00021F00702F2E802C1914605E01FFA8CFCC6
:1046E000042A01D10CF0FF0C4FF00008220728D556
:1046F000702806D0009B83F0100353EA0A0305D00C
:104700000EE040228DF80420012208E05CEA01025C
:1047100006D030228DF804208DF805000222904644
:10472000009B83F0080353EA0A030AD15CEA010202
:1047300001D1620705D530228DF804204FF0010821
:104740007F1E582804D034A003900EA802900DE0DC
:1047500036A0F9E753466046009AFBF731FD8446E0
:104760000398825C0298401E029002705CEA01008D
:10477000F0D1029806A9081A00F1200A600702D5B4
:1047800024F4803400E00127574502DDA7EB0A003E
:1047900000E0002000EB0A01009005984144401A17
:1047A0000590E00306D45B462146179A059800F071
:1047B000B3F90544002706E001A85A46C05D1799E1
:1047C00090476D1C7F1C4745F6DBE0030CD55B462C
:1047D0002146179A059800F09FF9054404E030201F
:1047E0005A46179990476D1C0099481E0090002961
:1047F000F5DC08E0029802995A460078491C0291BB
:10480000179990476D1CBAF10001AAF1010AF1DC79
:1048100065E1000009280100303132333435363784
:1048200038396162636465660000000030313233FC
:10483000343536373839414243444546000000009C
:1048400000F058F90544761C307800287FF4ECAD70
:1048500019B02846BDE8F08F620700D4062709F199
:10486000070222F0070CFCE80223E14603F00048AF
:104870005FEA080C02D00FF2702C0DE05FEA045CD6
:1048800002D50FF2682C07E05FEAC47C02D00FF279
:10489000602C01E0AFF2700C4FF0FF3823F00043C2
:1048A000CDF850C065280CD006DC452809D0462834
:1048B0001DD047283DD13DE0662818D067287ED11D
:1048C00038E00021112F01DB112000E0781CCDE938
:1048D000000106A90EA8FFF7DDFCDDE90F010E9A25
:1048E00003910021009207F1010A04914DE04FF07D
:1048F00000400097CDE9011006A90EA8FFF7CAFCF9
:10490000DDE90F0203920E9B11990022DDF80CA045
:104910000093049211B9791C00EB010AB7EB0A006D
:1049200004D4C0F1FF3007F1010A0490AAEB07009C
:10493000019044E0012F00DA01270021112F01DD51
:10494000112000E03846CDE9000106A90EA8FFF7C6
:10495000A1FCDDE90F010E9A039100210491009260
:10496000BA4621070CD40399514500DA8A46BAF1B8
:10497000010F05DD009AAAF10101515C302908D030
:10498000B84202DA10F1040F06DA0121CDE9011074
:1049900015E0AAF10101E9E7002805DC04990144CA
:1049A0000491AAEB000102E0411C514500DD8A465A
:1049B0000499401A401C01904FF0004002902007DB
:1049C00004D40198504501DBCDF8048000208DF817
:1049D0004F0002980DF14F07B0F1004F25D02B206A
:1049E0000E9002984FF0020800280CDA4042029024
:1049F0002D200E9007E00A210298FBF7ECFD3031E4
:104A0000029007F8011DB8F10001A8F10108F2DCDD
:104A100002980028EFD1791E0E980870307800F0C7
:104A2000200040F0450007F8020D12A8C01B00F15D
:104A300007081498007800B1012000EB0A010198E2
:104A400001EBE07105984144401A401E0590E003D7
:104A500006D45B462146179A059800F05DF8054498
:104A60001498007818B15A46179990476D1CE003C6
:104A700024D55B462146179A059800F04DF8054469
:104A80001CE00498002807DBDDE90301884203DD10
:104A90000098405C179901E0179930205A469047DA
:104AA000049805F10105401C04900198401E0190F6
:104AB00004D12E205A46179990476D1CBAF1000177
:104AC000AAF1010ADDDC05E017F8010B5A46179937
:104AD00090476D1CB8F10001A8F10108F4DC5B46B9
:104AE0002146179A0598ABE62D0000002B00000028
:104AF000200000002DE9F041044600251E4617461F
:104B0000880404D405E039462020B0476D1C641E9B
:104B1000F9D52846BDE8F0812DE9F041044600258D
:104B20001E469046C80301D5302700E020278804A0
:104B300004D505E041463846B0476D1C641EF9D5E2
:104B40002846BDE8F08100007FB5054699A1FCF735
:104B500059F99FED991B9A4CB8B194ED080B53ECA1
:104B6000112B51EC100BFBF76EFB41EC100B95A0D9
:104B700084ED080B94ED0C1B53EC102B8DED021BF8
:104B800094ED0A1B8DED001B0EE194A12846FCF765
:104B900039F99FED932BA8B194ED0A0B53EC122B2E
:104BA00051EC100BFBF74FFBC4E90A0194ED0C0B21
:104BB0008DED020BCDE9000194ED080B8AA053ECBA
:104BC000102BF1E08EA12846FCF71CF940B194EDC2
:104BD0000C0B53EC112B51EC100BFBF734FB40E0AA
:104BE00088A12846FCF70EF9C0B194ED080B53ECF0
:104BF000112B51EC100BFBF7C7FB41EC100B84EDB4
:104C0000080B94ED0C1B8DED021B94ED0A1B8DED32
:104C1000001B00BF53EC102B7BA0C5E080A12846F1
:104C2000FCF7F0F880B194ED0A0B53EC122B51EC29
:104C3000100BFBF7A9FBC4E90A0194ED0C0B8DEDF9
:104C4000020BCDE9000114E076A12846FCF7DAF862
:104C500090B194ED0C0B53EC112B51EC100BFBF7B6
:104C600093FBC4E90C01CDE9020194ED0A0B8DED33
:104C7000000B94ED080BCDE76BA12846FCF7C2F8BA
:104C80009FED6A0B50B184ED080B84ED0A0B84EDA7
:104C90000C0B8DED020B8DED000BBBE765A12846DB
:104CA000FCF7B0F840B194ED020B53EC112B51EC32
:104CB000100BFBF7C8FA2BE05FA12846FCF7A2F81F
:104CC00040B194ED040B53EC122B51EC100BFBF79D
:104CD000BAFA37E059A12846FCF794F858B194ED98
:104CE000060B53EC112B51EC100BFBF7ACFA3FE029
:104CF00094ED020B55E052A12846FCF783F8A0B1D1
:104D000094ED020B53EC112B51EC100BFBF73CFB19
:104D100041EC100B84ED020B94ED061B8DED021B94
:104D200094ED041B8DED001B3BE046A12846FCF7EB
:104D300069F880B194ED040B53EC122B51EC100B7D
:104D4000FBF722FBC4E9040194ED060B8DED020B89
:104D5000CDE90001CCE73CA12846FCF753F880B12F
:104D600094ED060B53EC112B51EC100BFBF70CFBE5
:104D7000C4E90601CDE9020194ED040B8DED000BB1
:104D8000B6E732A12846FCF73DF800280FD084EDA5
:104D9000020B84ED040B84ED060B8DED020B8DED03
:104DA000000B53EC102B2AA0FFF744FA002004B0AC
:104DB00070BD0000710000009A9999999999B93FC6
:104DC0001000002070703D2566202069693D256631
:104DD000202064643D256620200D0A007700000035
:104DE000FCA9F1D24D62503F70703D2566202069CC
:104DF000693D2566202064643D2566200D0A00007B
:104E0000650000006100000070703D25662020698B
:104E1000693D2566202064643D25660D0A0000007A
:104E20007300000064000000720000000000000039
:104E30000000000075000000690000006F00000025
:104E40006A0000006B0000006C00000070000000B1
:104E5000503D25662020493D25662020443D25669D
:104E60000D0A00002DE9F04128484188B1F5967FF0
:104E700044D9274C274A0126A169914201DA0670DC
:104E80003EE00178244F0025A1BB24490422097883
:104E9000B2EB111F27D0A06B03280ED394ED070AA5
:104EA000D4ED050A1E4920EE200A10EE100A8842B1
:104EB00003DA1748FBF760FE02E01A480068456312
:104EC000A08C282817D9002280213846FDF77BFACC
:104ED0001549A069884201DD84F8366088420FDAFE
:104EE00084F836500CE00670012280213846FDF728
:104EF0006AFA05E0FFE784F83650F5E7491C41807F
:104F00000A48C168491CC160BDE8F0810800002062
:104F1000A40500200000A040000002400000002086
:104F2000004003457007002000004041E0050020DC
:104F300004490A685206FCD5024AC1B2121D11602A
:104F4000704700000044004001A0FFF773B9000063
:104F5000476F310D0A000000FDF748FAFEF78CFD9F
:104F6000FEF718FAFEF7F8F9FEF73EFBFEF762F9D6
:104F7000FEF760FAFEF7AAFAFEF7CAF9FEF7DAFAC8
:104F8000FEF794F9FEF7FAFA012280211748FDF79F
:104F90001AFAFEF745FBFEF753FBFBF7B5FD144885
:104FA000FDF7DAFD1348FDF7D7FD1348FDF7D4FDF3
:104FB0001248FDF7D1FD00210D48FDF7ABFF01229E
:104FC0000F491048FCF70AFB0D490222091F0E4841
:104FD000FCF704FB0D4C4FF4FA7540212046FDF719
:104FE000EBF92846FDF7FEF8F7E700000000024065
:104FF00070070020B0070020F007002030080020D4
:10500000D805002040060020F805002000040240DA
:105010001FB50C480C4990ED021B81ED081B90ED6B
:10502000040B53EC112B81ED0A0B90ED062B07A01E
:1050300081ED0C2B8DED022B8DED000BFFF7FAF8B7
:105040001FBD0000480200201000002070703D25A8
:1050500066202069693D2566202064643D25662020
:105060000D0A00001FB50C480C4990ED021B81EDA4
:10507000021B90ED040B53EC112B81ED040B90ED12
:10508000062B07A081ED062B8DED022B8DED000B7D
:10509000FFF7D0F81FBD00004802002010000020DC
:1050A000503D25662020493D25662020443D25664B
:1050B0000D0A000010B504462DED068BB0EE428AB5
:1050C000F0EE618AB0EE419AF0EE609AB0EE40AA3E
:1050D0003C21FBF7ADF884ED00AAC4ED019A84ED04
:1050E000029AC4ED038A84ED0A8ABDEC068B10BDDA
:1050F0002DE9F04790B040213248FDF75DF9324884
:10510000324C4069A06332480069FBF735FA054626
:105110000E46A06AFBF730FA41EC100B2D480068F0
:10512000406B0095CDE9016053EC102B2AA0FFF7EE
:1051300081F82069FBF720FA074688466068FBF78C
:105140001BFA05460E46206AFBF716FACDE9040164
:10515000A069FBF711FACDE90201E069FBF70CFA4F
:10516000CDE900016069FBF707FA81468A46A0682D
:10517000FBF702FA41EC100B2548A18C027894F859
:1051800036000E92CDE90C1008A853EC102B80E8E5
:10519000E001DDE90401CDE90601DDE90201CDE927
:1051A0000401DDE90001CDE9009ACDE902011948C9
:1051B000FFF740F810B01821BDE8F0470248FBF7B0
:1051C00037B8000000040240E0050020A4050020DC
:1051D00068050020700700204375725F5461726794
:1051E0006574203D202566202020202020202020BE
:1051F0006572724E6F77203D20256620202020208A
:10520000206374724F7574203D2025640D0A0000E0
:1052100008000020385200080000000000000000D4
:10522000010203040607080900000000010203044C
:1052300000061016000610164368617267696E67F3
:105240004375725F53756D3D256620202020202018
:105250002020436861737369734375725F53756D82
:105260003D2566202020200D436861737369735FBC
:10527000566F6C743D256620202020204361705FAE
:10528000566F6C743D25662020202043686173733F
:1052900069735F506F7765723D256620202020205E
:1052A0006368617267696E675F626173653D2566F9
:1052B00020202020636861737369735F6261736586
:1052C0003D25662020200D5F706F7765725F6275E7
:1052D000666665723D25642020202063616E5F75DF
:1052E00073655F4361703D25642020206E6576659F
:1052F000725F7573655F6361703D25640D0A000020
:1053000020530008000000207000000074420008D4
:105310009053000870000020400C000084420008F8
:10532000000000000000000000000000000000007D
:10533000000000000000000000000000000000006D
:10534000000000000000000000000000000000005D
:10535000000000000000000000000000000000004D
:10536000000000000000000000000000000000003D
:105370000000000000000000000000000024F40015
:10538000010000001000000000000000000000000C
:040000050800018965
:00000001FF
